:040000007BEF13F08F
:08000800046ED8CF05F0E0CF33
:1000100006F00001E9CF0CF0EACF07F0E1CF08F0DD
:10002000E2CF09F0D9CF0AF0DACF0BF0F3CF12F01C
:10003000F4CF13F0FACF14F0F5CF15F0F6CF16F099
:10004000F7CF17F000C00EF001C00FF002C010F0A3
:1000500003C011F09DA230EF00F09EB257EF00F008
:100060000EC000F00FC001F010C002F011C003F08C
:100070000CC0E9FF07C0EAFF078E08C0E1FF09C016
:10008000E2FF0AC0D9FF0BC0DAFF12C0F3FF13C0B2
:10009000F4FF14C0FAFF15C0F5FF16C0F6FF17C035
:1000A000F7FF045006C0E0FF05C0D8FF1000562A35
:1000B000D8B4572A9E9230EF00F00D0A0D0A434340
:1000C000532043414E205452414E53464552204204
:1000D0004D4532383020444154410D0A00000D0A8C
:1000E00052756E6E696E672E2E2E00000D0A5465D5
:1000F0006D705F424D45323830203D20256633001B
:100100000D0A48756D6964697479424D453238301D
:10011000203D2025663300000D0A5450726573732C
:10012000424D45323830203D2025663300000D0A0F
:10013000474F543A20425546463D25552049443DB7
:10014000254C55204C454E3D2555204F56463D25C6
:100150005520000046494C543D2555205254523DEF
:100160002555204558543D255520494E563D255589
:1001700000000D0A2020202044415441203D200051
:100180000D0A4641494C206F6E20474554440D0AE4
:1001900000000D0A5055542025553A2049443D256C
:1001A0004C55204C454E3D25552000005052493DB0
:1001B0002555204558543D2555205254523D25552E
:1001C0000D0A20202044415441203D2000000D0A0A
:1001D0004641494C206F6E20505554440D0A000092
:1001E0000D0A5055542025553A2049443D254C557B
:1001F000204C454E3D25552000005052493D255587
:10020000204558543D2555205254523D25550D0A40
:1002100020202044415441203D2000000900F55297
:100220000DE0F6CFA3F0F7CFA4F0F5509EA8FED7CF
:10023000AD6EA3C0F6FFA4C0F7FFF0D71200A3393C
:10024000700B006ED89000361F0E6F1400106F6E8A
:100250006ECF00F0003A0030070BA35DF9E1120009
:10026000C00E70140409706E3F0E7014706EF80E9C
:1002700071140209716EC70E71142809716E719C98
:10028000718EF80E72140509726E729CE4EF01F023
:10029000B4C0BBF0B3C0BAF0B95352E0BAC0E9FF82
:1002A000BBC0EAFFB5C0EFFFBA51D8B4BB07BA076D
:1002B000BAC0E9FFBBC0EAFFB6C0EFFFBA51D8B47D
:1002C000BB07BA07BAC0E9FFBBC0EAFFB751030BCF
:1002D000EF6EBAC0E9FFBBC0EAFFB7C000F000365E
:1002E00000360036F80E00160050E00BEF10EF6EEF
:1002F000BAC0E9FFBBC0EAFFEF500809EF6EBA5180
:10030000D8B4BB07BA07BAC0E9FFBBC0EAFFB7C0A1
:1003100000F0003A0032070E00160050070BEF6E97
:10032000BAC0E9FFBBC0EAFFB8C000F00036003633
:100330000036F80E00160050F80BEF10EF6E3FD0AD
:10034000BAC0E9FFBBC0EAFFEF6ABA51D8B4BB0735
:10035000BA07BAC0E9FFBBC0EAFFEF6ABA51D8B426
:10036000BB07BA07BAC0E9FFBBC0EAFFB5C000F0DF
:10037000003A0036E00E00160050E00BEF6EBA5166
:10038000D8B4BB07BA07BAC0E9FFBBC0EAFFB5C023
:1003900000F00032003200321F0E001600501F0B1A
:1003A000EF6EBAC0E9FFBBC0EAFFB6C000F0003A8A
:1003B0000036E00E00160050E00BEF10EF6E12005A
:1003C000040EA36F3CDF4CD7606A9F0E6014606E12
:1003D000608460CF50FF739A7398739E739C0F0E66
:1003E000B46F1B0EB36FB86BB76BB66BB56B010E0A
:1003F000B96F4EDF0F0EB46F030EB36FB86BB76BF0
:10040000B66BB56B010EB96F43DF0F0EB46F070EFD
:10041000B36FB86BB76BB66BB56B010EB96F38DFE6
:100420000F0EB46F1F0EB36FB86BB76BB66BB56BB7
:10043000010EB96F2DDF0F0EB46F0B0EB36FB86BDB
:10044000B76BB66BB56B010EB96F22DF0F0EB46FD1
:10045000B36FB86BB76BB66BB56B010EB96F18DFC6
:100460000F0EB46F130EB36FB86BB76BB66BB56B83
:10047000010EB96F0DDF0F0EB46F170EB36FB86BAF
:10048000B76BB66BB56B010EB96F02DF9350FB0B08
:100490000809936EA36BD3DE00EF14F09388938A60
:1004A00002EF14F0080E016E00008A9A939A000081
:1004B000B4378A98D8B09388D8A09398938A81AAA1
:1004C000FED7012EF1D700008A9A939A00009388F4
:1004D00000000000938A81AAFED7016A000081B85B
:1004E00001808A9A939A8A9893981200080EB56FA1
:1004F00000C0B6F093880000938A81AAFED781B825
:10050000D88081A8D89001360000939A8A9AB52F96
:10051000F1D7938800008A98B651D8A49398000028
:10052000938A81AAFED700008A9A939A00008A983B
:100530009398120093880000938A00008A989398F9
:1005400000008A9A939AEE0EB46FACDFA7C0B4F0A5
:10055000A9DF93880000938A000081AAFED78A98B9
:10056000939800008A9A939AEF0EB46F9BDF006A0B
:10057000BDDF01C0A8F093980000938A81AAFED73E
:10058000000000D0000093880000A8C001F0120015
:1005900093880000938A00008A98939800008A9AB2
:1005A000939AEE0EB46F7EDFA3C0B4F07BDFA4C0DD
:1005B000B4F078DF93980000938A81AAFED70000F8
:1005C00000D00000938800001200EA6AA40EE96ED1
:1005D000EF500DE0060E016E006A002EFED7012ED0
:1005E000FBD77B0E006E002EFED7EF2EF3D7120046
:1005F000F30EA76F9FDF01C0A3F0A351010B02E12F
:10060000000E01D0010E016E44EF04F0B451B603A8
:10061000F3CF01F0F4CF00F0B703F3500026B5514B
:10062000B603F3500020026E4DEF03F093880000F4
:10063000938A00008A98939800008A9A939AEE0E03
:10064000B46F30DFAFC0B4F02DDF93880000938A21
:10065000000081AAFED78A98939800008A9A939AFC
:10066000EF0EB46F1FDF010E006E40DF01C0B0F06F
:10067000006A3CDF01C0B1F093980000938A81AA20
:10068000FED7000000D0000093880000B56BB0C01A
:10069000B4F0010EB76FB66BB9D7B1510124B26F88
:1006A000000E0220B36FB2C001F0B3C002F012001E
:1006B000A4C0AFF0BBDF02C0A6F001C0A5F0A6C089
:1006C000A7F0A86BA5C003F0000EA611A56F0350FC
:1006D000A811A66FA5C001F0A6C002F01200A3C029
:1006E000A4F0E6DF02501200E40EA76F23DF01C082
:1006F000A5F0E50EA76F1EDF01C0A6F0A86BA5C090
:10070000A7F0A737A837A737A837A737A837A7373D
:10071000A837F00EA717A6510F0BA725A36F000E41
:10072000A821A46FA3C001F0A4C002F0FEEF03F063
:10073000880EA46FBDDF02C01AF001C019F08A0E46
:10074000A36FCDDF02C01CF001C01BF08C0EA36FA5
:10075000C6DF02C01EF001C01DF08E0EA46FA8DF20
:1007600002C020F001C01FF0900EA36FB8DF02C0DE
:1007700022F001C021F0920EA36FB1DF02C024F07D
:1007800001C023F0940EA36FAADF02C026F001C0BF
:1007900025F0960EA36FA3DF02C028F001C027F05A
:1007A000980EA36F9CDF02C02AF001C029F09A0EB8
:1007B000A36F95DF02C02CF001C02BF09C0EA36F3D
:1007C0008EDF02C02EF001C02DF09E0EA36F87DFDA
:1007D00002C030F001C02FF0A10EA76FABDE01C048
:1007E00031F0E10EA36F7BDF02C033F001C032F0C5
:1007F000E30EA76F9FDE01C034F076D702C036F05B
:1008000001C035F0E60EA76F95DE0138A36FF00E3C
:10081000A317E50EA76F8EDE0138006E0F0E0016CF
:100820000050A311036A376E03C038F0E70EA76FBC
:1008300081DE01C039F04BEF04F0F20EA36F030E1E
:10084000A46FA6DEF50EA36F680EA46FA1DEF40EF2
:10085000A36F6E0EA46F9CDE4CEF04F0D00EA76F5A
:1008600069DE0150600803E0000E016E17D0E00E53
:10087000A36FB60EA46F8CDE020EA36F960EA46F4C
:10088000A4DEA32FFBD7B4D6015204E0640EA46FFC
:100890009CDEF9D74DD7D1D7010E016E04EF14F0CD
:1008A00093880000938A00008A98939800008A9A9F
:1008B000939AEE0EB46FF6DDF70EB46FF3DD938806
:1008C0000000938A000081AAFED78A9893980000BE
:1008D0008A9A939AEF0EB46FE5DD010E006E06DE84
:1008E00001C048F0010E006E01DE01C049F0010EAA
:1008F000006EFCDD01C04AF0010E006EF7DD01C0A4
:100900004BF0010E006EF2DD01C04CF0010E006EE6
:10091000EDDD01C04DF0010E006EE8DD01C04EF0CE
:10092000010E006EE3DD01C04FF093980000938A42
:1009300081AAFED7000000D0000093880000416A21
:1009400048C040F049C03FF04AC03EF0456A4BC045
:1009500044F04CC043F04DC042F04EC047F04FC091
:1009600046F013EF14F0C76BC86B010EC96FDA6A5B
:10097000D96ACC6BBF0ECB6FEA6AC30EE96ECCC0EE
:10098000E2FFCBC0E1FFC9C0CAF0D890E550EE024B
:10099000F350C723F450C823CA2FF7D7C7C0DEFFD0
:1009A000C8C0C7F0C86BD8B0C82BCB2BD8B4CC2BE1
:1009B000C92BC9510508E0E11200B60E006E036AAA
:1009C000026A016AB451B511B611B71102E1006AA9
:1009D0000DD0D89001BE09D0B437B537B637B73788
:1009E000033602360136002EF4D7019E1200B351B1
:1009F000D8B4A5D0BF6FB751D8B4A1D0BF5F05E3BD
:100A00007F0EBF27D8B09BD006D0810EBF5FD8A085
:100A100096D0D8B494D0BFC000F0016A026A036ACD
:100A2000BE6BB4C0BDF0BD8FB5C0BCF0B6C0BBF0EE
:100A3000190EBF6FBA51BB5F0DE2010EBC5F0AE237
:100A4000BD5F08E2BE5F06E2BE2BBD2BBC2BBA51D8
:100A5000BB2728D0B951BC5F12E2010EBD5F0FE287
:100A6000BE5F0DE2BE2BBD2BB951BC27BA51BB27CF
:100A700019E3BC2B17E1BD2B15E1BE2B13D0B851E8
:100A80008009BD5F0EE2010EBE5F0BE2BE2BB851C6
:100A90008009BD27B951BC27E9E3BD2BE7E1BE2B97
:100AA000E5D70380BF2F01D00BD0D890BB37BC3720
:100AB000BD37BE37D890033602360136C037BAD7B5
:100AC000C0A106D0D890013202320332C03302D026
:100AD000000635E0C0BF1ED0D890BB37BC37BD374D
:100AE000BE37BA51BB5F07E2010EBC5F04E2BD5FD7
:100AF00002E2BE5F1AE3B951BC5F05E2010EBD5FC1
:100B000002E2BE5F12E3B8518009BD5F03E2010E4D
:100B1000BE5F0BE3032A09E1022A07E1012A05E18E
:100B2000002A0DE0013202320332B4C0BFF0B851E6
:100B3000BF1BBFAF02D0018E06D0019E04D0006A59
:100B4000016A026A036A120042520CE143520AE14E
:100B50004450800807E1455205E1006A016A026AD3
:100B6000036A8DD1453244324332423245324432F7
:100B700043324232453244324332423245324432C9
:100B8000433242320F0E45164530B36F4430B26FD8
:100B90004330B16F4230B06FB333B233B133B0339F
:100BA000B333B233B133B0331F0EB317B76BB66B79
:100BB0001AC0B5F019C0B4F0D8901934006E1A34C8
:100BC000016EB635026EB735036E0050B05F01504E
:100BD000B15B0250B25B0350B35B1BC000F01CC0A2
:100BE00001F0026A036A1CAE02D00206030603C0CB
:100BF000B7F002C0B6F001C0B5F000C0B4F0B3C0A9
:100C0000C2F0B2C0C1F0B1C0C0F0B0C0BFF003C00C
:100C1000C6F002C0C5F001C0C4F000C0C3F0A3DE3E
:100C200003C0B3F002C0B2F001C0B1F000C0B0F038
:100C3000036AB331026EB231016EB131006E02321D
:100C4000013200320232013200321F0E021603C09E
:100C5000A6F002C0A5F001C0A4F000C0A3F045308A
:100C6000B36F4430B26F4330B16F4230B06FB333C3
:100C7000B233B133B033B333B233B133B033B33350
:100C8000B233B133B0330F0EB317026A036A19508F
:100C9000B05F1A50B15B0250B25B0350B35B45309A
:100CA000B86F4430B76F4330B66F4230B56FB8336A
:100CB000B733B633B533B833B733B633B533B833E8
:100CC000B733B633B5330F0EB817026A036A19503B
:100CD000B55D006E1A50B659016E0250B759026EDA
:100CE0000350B859036EB86F02C0B7F001C0B6F038
:100CF00000C0B5F0B3C0C2F0B2C0C1F0B1C0C0F026
:100D0000B0C0BFF0C66F02C0C5F001C0C4F000C0E3
:100D1000C3F029DE03C0B3F001C0B0F002C0B1F0EF
:100D200003C0B2F0B36BB333B233B133B033B333C8
:100D3000B233B133B033B333B233B133B033B3338F
:100D4000B233B133B0330F0EB3171DC000F01EC065
:100D500001F0026A036A1EAE02D00206030603C057
:100D6000B9F002C0B8F001C0B7F000C0B6F0B3C02F
:100D7000C2F0B2C0C1F0B1C0C0F0B0C0BFF003C09B
:100D8000C6F002C0C5F001C0C4F000C0C3F0EBDD86
:100D900003C0B3F002C0B2F001C0B1F000C0B0F0C7
:100DA000036AB331026EB231016EB131006E0232AC
:100DB000013200320232013200320232013200329C
:100DC000023201320032023201320032030E0216C8
:100DD00003C0AAF002C0A9F001C0A8F000C0A7F0AB
:100DE000A751A3253A6EA851A4213B6EA951A52174
:100DF0003C6EAA51A6213D6E3DC0C2F03CC0C1F080
:100E00003BC0C0F03AC0BFF0C66BC56BC46B050EEB
:100E1000C36FA9DD03C0B2F002C0B1F001C0B0F0F1
:100E200000C0AFF0800EAF27000EB023B123B22375
:100E3000B0C000F0B1C001F0B2C002F0036A03C05C
:100E4000B7F0B2C0B6F0B1C0B5F0B0C0B4F0B5DD27
:100E500003C0AEF002C0ADF001C0ACF000C0ABF01A
:100E6000AEC0B6F0ADC0B5F0ACC0B4F0ABC0B3F03E
:100E7000BA6BB96B480EB86F850EB76FB8DD19EF56
:100E800014F00900F6CFA8F0F7CFA9F0F5509EA80E
:100E9000FED7AD6EA8C0F6FFA9C0F7FFA72FF1D708
:100EA0001200B751D8B471D0006EBB51D8B46DD018
:100EB000002604E3810E002668E204D07F0E005E67
:100EC00064E363E0B8C0BFF0BC51BF1BB88FBC8FF8
:100ED000BA51BE03F4CFC1F0B951BD03F4CF03F052
:100EE000F3CFC0F0BE03F350C127F450C023000E6F
:100EF0000322BA51BD03F350C127F450C023000EA2
:100F0000026A03220222B851BE03F350C027F450F4
:100F10000322000E0222B851BD03F3500326F45001
:100F20000222000E016A0122BA51BC03F350C0270D
:100F3000F4500322000E02220122B951BC03F350E7
:100F40000326F4500222000E0122B851BC03F350D4
:100F50000226F4500122002A01BE05D0C037033614
:100F6000023601360006000EC0AF0AD0032A022264
:100F70000122015005E1025003E1035001E1002A82
:100F8000BFBF018EBFAF019E04D0006A016A026A32
:100F9000036A1200B051B608B06F036AB1C0B4F072
:100FA000B18FD890B133B233B3330332023201324E
:100FB0000032B02FF6D7B4AF0BD0001E011E021EB8
:100FC000031E002AD8B4012AD8B4022AD8B4032AAE
:100FD00058EF08F0D8B203D0EA6AB90EE96E006A99
:100FE000016A026A036AB96BBA6BBB6BBC6BB8511E
:100FF000B711B611B5112CE0200EBD6FD890B137E6
:10100000B237B337B437B937BA37BB37BC37B85153
:10101000BC5D08E1B751BB5D05E1B651BA5D02E1C7
:10102000B551B95D0FE3B551B95FB651D8A0B63D22
:10103000BA5FB751D8A0B73DBB5FB851D8A0B83D93
:10104000BC5FD8800036013602360336BD2FD6D7B6
:10105000B9C0EFFFBAC0ECFFBBC0ECFFBCC0ECFFF7
:101060001200E950A86FA751AA6F19E0A6C0BAF004
:10107000A5C0B9F0A4C0B8F0A3C0B7F0BE6BBD6BFB
:10108000200EBC6F820EBB6F0CDF03C0A6F002C047
:10109000A5F001C0A4F000C0A3F0AA2FE7D7A6C016
:1010A000B3F0A5C0B2F0A4C0B1F0A3C0B0F072D745
:1010B00003C0A6F002C0A5F001C0A4F000C0A3F0D8
:1010C000A6AF0DD0A807A88BA31FA41FA51FA61FFE
:1010D000A32BD8B4A42BD8B4A52BD8B4A62B3B0EE5
:1010E000AF6F9A0EAE6FCA0EAD6FAC6B0A0EAA6FE1
:1010F000A751D8B4A82BD882EA6AA30EE96EA6C07D
:10110000B4F0A5C0B3F0A4C0B2F0A3C0B1F0AFC0BA
:10111000B8F0AEC0B7F0ADC0B6F0ACC0B5F05ADFB5
:10112000015000520FE1A729AA5D0CE0A8510CE084
:101130000F0BAA5D01E03BE2A8BF39D0A8BD04D0E7
:10114000200E30D0200EA817A8AB0DD0A89BA75119
:10115000D8A4A8070050A86F2D0E9EA8FED7AD6E8C
:10116000A851006EA86BA751AA5D0BE10050A86FB3
:101170002E0E9EA8FED7AD6EA851006E200EA817A9
:10118000000E300EA8AB0ED0A89BA751D8A4A8077C
:101190000050A86F2D0E9EA8FED7AD6EA851006E10
:1011A000A86B300E002600509EA8FED7AD6ED892D8
:1011B000AFC0B4F0AEC0B3F0ADC0B2F0ACC0B1F0EF
:1011C000B86BB76BB66B0A0EB56F04DF03C0AFF038
:1011D00002C0AEF001C0ADF000C0ACF0AA2F8BD7BA
:1011E0001200FD0EAF6F16EC03F0A66BA56B02C0EC
:1011F000A4F001C0A3F0A3530CE1A451800809E1BD
:10120000A55307E1A65305E1006A016A026A036A71
:10121000B8D2000E3A5CA76F2C0E3B58A86F010E97
:101220003C58A96F000E3D58AA6FB06BA335B16F43
:10123000A435B26FA535B36FB137B237B337B13715
:10124000B237B337B137B237B337B137B237B33755
:10125000B137B237B337C00EB117B76BB66B006A90
:10126000016A3534026E3634036E023603360236B6
:10127000033602360336F00E02160050B05F0150FE
:10128000B15B0250B25B0350B35BB76BB66B38C057
:10129000B5F037C0B4F038AE02D0B607B707B7C064
:1012A000C2F0B6C0C1F0B5C0C0F0B4C0BFF0AAC0B3
:1012B000C6F0A9C0C5F0A8C0C4F0A7C0C3F0B3EC85
:1012C00004F00050B05F0150B15B0250B25B0350BC
:1012D000B35B400EB127000EB223B323B1C0B0F010
:1012E000B2C0B1F0B3C0B2F0B36BB333B233B13309
:1012F000B033B333B233B133B033B333B233B133CA
:10130000B033B333B233B133B033B333B233B133B9
:10131000B033B333B233B133B033B333B233B133A9
:10132000B033010EB31739C000F0016A026A036AD4
:10133000AAC0C2F0A9C0C1F0A8C0C0F0A7C0BFF049
:1013400003C0C6F002C0C5F001C0C4F039C0C3F08C
:10135000B3EC04F003C0B8F001C0B5F002C0B6F0C1
:1013600003C0B7F0B86BB833B733B633B533B8335F
:10137000B733B633B5333F0EB81734C000F0016A47
:10138000026A036A03C0BDF002C0BCF001C0BBF03A
:1013900034C0BAF0AAC0C2F0A9C0C1F0A8C0C0F061
:1013A000A7C0BFF003C0C6F002C0C5F001C0C4F0C2
:1013B00034C0C3F0B3EC04F003C0BDF001C0BAF018
:1013C00002C0BBF003C0BCF0BD6BBD33BC33BB334C
:1013D000BA33BD33BC33BB33BA33BD33BC33BB3399
:1013E000BA331F0EBD17BAC000F0800EBB25016EC8
:1013F000000EBC21026E000EBD21036EBD6F02C047
:10140000BCF001C0BBF0BAC0BAF0B8C0C2F0B7C0FF
:10141000C1F0B6C0C0F0B5C0BFF0C66F02C0C5F025
:1014200001C0C4F0BAC0C3F0B3EC04F003C0B8F01C
:1014300001C0B5F002C0B6F003C0B7F0B86BB83366
:10144000B733B633B533B833B733B633B5333F0EEE
:10145000B817200EB727000EB82332C000F033C0F3
:1014600001F0026A036A33AE02D00206030603C02B
:10147000BEF002C0BDF001C0BCF000C0BBF0B8C0FF
:10148000C2F0B7C0C1F0B6C0C0F0B5C0BFF003C075
:10149000C6F002C0C5F001C0C4F000C0C3F0B3EC98
:1014A00004F003C0B8F002C0B7F001C0B6F000C04D
:1014B000B5F0200EB627000EB723B823036AB83163
:1014C000026EB731016EB631006E02320132003267
:1014D0000232013200320232013200320232013273
:1014E0000032023201320032030E021603C0B8F09D
:1014F00002C0B7F001C0B6F000C0B5F0B3C0C2F092
:10150000B2C0C1F0B1C0C0F0B0C0BFF003C0C6F0FF
:1015100002C0C5F001C0C4F000C0C3F0B3EC04F0D9
:1015200003C0AAF002C0A9F001C0A8F000C0A7F053
:10153000B36BAA31B26FA931B16FA831B06FB233BA
:10154000B133B033B233B133B033B233B133B0337C
:10155000B233B133B033B233B133B033B233B1336A
:10156000B033010EB217036AAA31026EA931016EBF
:10157000A831006E023201320032023201320032F2
:1015800002320132003202320132003202320132C2
:101590000032023201320032010E021603C0B8F0EE
:1015A00002C0B7F001C0B6F000C0B5F0B3C0C2F0E1
:1015B000B2C0C1F0B1C0C0F0B0C0BFF003C0C6F04F
:1015C00002C0C5F001C0C4F000C0C3F0B3EC04F029
:1015D00003C0B3F002C0B2F001C0B1F000C0B0F07F
:1015E000B333B233B133B033B333B233B133B033D7
:1015F000B333B233B133B033B333B233B133B033C7
:10160000B333B233B133B033B333B233B133B033B6
:10161000B333B233B133B033010EB31731C000F07E
:10162000016A026A036A03C0B9F002C0B8F001C0DF
:10163000B7F031C0B6F0B3C0C2F0B2C0C1F0B1C0B3
:10164000C0F0B0C0BFF003C0C6F002C0C5F001C01A
:10165000C4F031C0C3F0B3EC04F003C0B3F002C077
:10166000B2F001C0B1F000C0B0F00330036E023040
:10167000026E0130016E0030006E03320232013220
:1016800000320332023201320032033202320132BE
:1016900000320F0E03160050A75F0150A85B0250E6
:1016A000A95B0350AA5BAAAF05D0006A016A026A6F
:1016B000036A08D0A7C000F0A8C001F0A9C002F0DA
:1016C000AAC003F003C0AAF002C0A9F001C0A8F0AC
:1016D00000C0A7F0AABF12D0AA5118080FE2FF0A53
:1016E00007E1A95305E1A85303E1A751000806E269
:1016F000006A016A026A190E036E08D0A7C000F0E2
:10170000A8C001F0A9C002F0AAC003F003C0AAF06B
:1017100002C0A9F001C0A8F000C0A7F0036AAA3176
:10172000026EA931016EA831006E02320132003220
:101730000232013200320232013200320F0E021642
:1017400003C0B7F002C0B6F001C0B5F000C0B4F0FD
:10175000DDEC04F003C0AEF002C0ADF001C0ACF0AF
:1017600000C0ABF0AEC0B6F0ADC0B5F0ACC0B4F0E8
:10177000ABC0B3F0BA6BB96BB86B890EB76FF7EC4F
:1017800004F051EF14F0B60E006E036A026A016AAB
:10179000B391B2AF0CD0B381AF1FB01FB11FB21F56
:1017A000AF2B05E1B02B03E1B12BD8B4B22BAF5175
:1017B000B011B111B21102E1006A0FD0D89001BE90
:1017C00009D0AF37B037B137B237033602360136FA
:1017D000002EF4D7019EB3B1018EC9EF0DF0800E3B
:1017E000D8B2B81BBD6BBE6BB4C0BCF0B851BC1B4B
:1017F000B351D8B4DCD0BB6F006EB751D8B4E0D0D1
:10180000BB5FD8B481D03DE3B8C0C1F0C18FB9C0CF
:10181000C0F0BAC0BFF0BE6BD890C133C033BF3385
:10182000BE33BB2FF8D7BCAF03D0BD81DDD0BD9197
:10183000BB91BD89EA6AB60EE96EE9D0BD99BCBF1D
:101840000AD0BBA113D0C133C033BF33BE33002A8B
:10185000D8B4C5D00BD0C1BF0CD0D890BE37BF37DD
:10186000C037C1370006D8B4BAD0F5D7BD8D6BD01C
:10187000BD9DB4C0BCF0B4AF02D0C18FA9D0C19F90
:10188000A7D0B7C0BBF0B7C000F0B351BB5FB4C0C6
:10189000C1F0C18FB5C0C0F0B6C0BFF0BE6BD8906C
:1018A000C133C033BF33BE33BB2FF8D7BCAF03D077
:1018B000BD839AD0BD93BB91BD8BEA6ABA0EE96E27
:1018C000A6D0BD9BBCBF0AD0BBA113D0C133C033CF
:1018D000BF33BE33002AD8B482D00BD0C1BF0CD0E6
:1018E000D890BE37BF37C037C1370006D8B477D0DD
:1018F000F5D7BD8F28D0BD9FB8C0BCF0B8AF02D01F
:10190000C18F66D0C19F64D0B8C0C1F0C18FB9C0CB
:10191000C0F0BAC0BFF0BCAF04D0C19FBD8564D0D9
:10192000BD95BE6BBB91EA6AB60EE96E70D0BCBFC6
:101930001CD0B4C0BCF0BBA106D0C133C033BF3390
:10194000BE33002A4CE0BEAF0BD0BF2B09E1C02B49
:1019500007E1C12B05E1C133C033BF33002A3FE0AB
:10196000BDBD86D7BDBFC7D71CD0800EC11BC1AFC0
:1019700004D03AD0B8C0BCF00AD0B4C0BCF0C15357
:1019800006E1C05304E1BF5302E1006A21D0C1BFA8
:1019900008D0D890BE37BF37C037C137002EF7D731
:1019A0001ED0BCAF02D0C18F13D0C19F11D0B7C021
:1019B00000F0B8C0C1F0B9C0C0F0BAC0BFF008D0E4
:1019C000B3C000F0B4C0C1F0B5C0C0F0B6C0BFF045
:1019D000C1C001F0C0C002F0BFC003F034D0006A43
:1019E000016A026A036A2FD0BE6BBF1FC01FC11FEE
:1019F000BE1FBE2B05E1BF2B03E1C02B01E1C12BB4
:101A0000BDB115D7BDB356D7BDB58AD7B3D7EF5043
:101A1000BF2705E3C02B03E1C12BD8B4BB81ED5236
:101A2000EF50C02703E3C12BD8B4BB81ED52EF5078
:101A3000EFBE01D0800AC127D8B0BB81BDB9FED6A8
:101A4000BDBB3FD774D712008E0E006EB4C001F03C
:101A5000B3C002F0036AB4AF05D0011E021E022A11
:101A600001E1012A015209E102C001F0026A080EF7
:101A7000005E015202E1006A0AD0D89001BE04D093
:101A8000023601360006F9D7B4BF01D0019E12001C
:101A90008E0E006EB4C001F0B3C002F0036A0152B2
:101AA00009E102C001F0026A080E005E015202E183
:101AB000006A08D0D89001BE04D002360136000674
:101AC000F9D7019EB8EF0FF0B0C0B7F0B451B71B13
:101AD000B7AF05D0D894D890B0BFD8802FD0B0C0C1
:101AE000B7F0B3C0B8F0AF51B85F06E0B7AF26D0DB
:101AF000D850010AD86E22D0B4C0B8F0B051B85F47
:101B000006E0B7AF1BD0D850010AD86E17D0B5C0C9
:101B1000B8F0B151B85F06E0B7AF10D0D850010AA5
:101B2000D86E0CD0B6C0B8F0B251B85F06E0B7AF0F
:101B300005D0D850010AD86E01D0D890DFEF0FF051
:101B40003E520CE13F520AE14050800807E1415209
:101B500005E1006A016A026A036AB4D34132403285
:101B60003F323E32413240323F323E3241324032E9
:101B70003F323E32413240323F323E320F0E41164A
:101B80003DC0B2F03CC0B1F03BC0B0F03AC0AFF0E5
:101B9000FAD503C0B2F002C0B1F001C0B0F000C08D
:101BA000AFF003C0B6F002C0B5F001C0B4F000C0A1
:101BB000B3F0BA6BB96BB86B800EB76FF7EC04F08B
:101BC00003C0B2F002C0B1F001C0B0F000C0AFF08D
:101BD000D88203C0B6F002C0B5F001C0B4F000C0B6
:101BE000B3F0BA6BB96B7A0EB86F8E0EB76FF7DDC4
:101BF00003C0A6F002C0A5F001C0A4F000C0A3F08D
:101C0000A6C0BAF0A5C0B9F0A4C0B8F0A3C0B7F0A0
:101C1000A6C0BEF0A5C0BDF0A4C0BCF0A3C0BBF080
:101C200051EC07F003C0B2F002C0B1F001C0B0F057
:101C300000C0AFF02AC0B4F029C0B3F005DFB2C0D5
:101C4000BAF0B1C0B9F0B0C0B8F0AFC0B7F003C0DF
:101C5000BEF002C0BDF001C0BCF000C0BBF051EC52
:101C600007F003C0B2F002C0B1F001C0B0F000C094
:101C7000AFF003C0B6F002C0B5F001C0B4F000C0D0
:101C8000B3F0BA6BB96BB86B8E0EB76FF7EC04F0AC
:101C900003C0AAF002C0A9F001C0A8F000C0A7F0DC
:101CA00028C0B4F027C0B3F0CFDEA6C0BAF0A5C0FC
:101CB000B9F0A4C0B8F0A3C0B7F003C0BEF002C032
:101CC000BDF001C0BCF000C0BBF051EC07F003C098
:101CD000B2F002C0B1F001C0B0F000C0AFF003C07C
:101CE000BAF002C0B9F001C0B8F000C0B7F0BE6BE6
:101CF000BD6BBC6B800EBB6F51EC07F0D892AAC0D5
:101D0000B6F0A9C0B5F0A8C0B4F0A7C0B3F003C046
:101D1000BAF002C0B9F001C0B8F000C0B7F05FDDA2
:101D200003C0AAF002C0A9F001C0A8F000C0A7F04B
:101D3000AAC0B6F0A9C0B5F0A8C0B4F0A7C0B3F06F
:101D4000BA6BB96BB86B810EB76FF7EC04F003C0D8
:101D5000B2F002C0B1F001C0B0F000C0AFF026C0D8
:101D6000B4F025C0B3F070DE03C0B6F002C0B5F029
:101D700001C0B4F000C0B3F003C0BAF002C0B9F0C3
:101D800001C0B8F000C0B7F0BE6BBD6BBC6B8F0E6E
:101D9000BB6F51EC07F0D892B2C0B6F0B1C0B5F04D
:101DA000B0C0B4F0AFC0B3F003C0BAF002C0B9F035
:101DB00001C0B8F000C0B7F012DD03C0AAF002C045
:101DC000A9F001C0A8F000C0A7F024C0B4F023C05F
:101DD000B3F03ADE03C0B2F002C0B1F001C0B0F01F
:101DE00000C0AFF003C0BAF002C0B9F001C0B8F053
:101DF00000C0B7F0A6C0BEF0A5C0BDF0A4C0BCF046
:101E0000A3C0BBF051EC07F003C0B2F002C0B1F0C8
:101E100001C0B0F000C0AFF003C0BAF002C0B9F02A
:101E200001C0B8F000C0B7F0A6C0BEF0A5C0BDF0BC
:101E3000A4C0BCF0A3C0BBF051EC07F003C0B2F0EB
:101E400002C0B1F001C0B0F000C0AFF003C0B6F006
:101E500002C0B5F001C0B4F000C0B3F0BA6BB96B0A
:101E6000B86B920EB76FF7EC04F003C0B2F002C08B
:101E7000B1F001C0B0F000C0AFF022C0B4F021C09A
:101E8000B3F0E2DD03C0B6F002C0B5F001C0B4F0BB
:101E900000C0B3F003C0BAF002C0B9F001C0B8F09E
:101EA00000C0B7F0A6C0BEF0A5C0BDF0A4C0BCF095
:101EB000A3C0BBF051EC07F0D892B2C0B6F0B1C0ED
:101EC000B5F0B0C0B4F0AFC0B3F003C0BAF002C018
:101ED000B9F001C0B8F000C0B7F081DC03C0B2F0C7
:101EE00002C0B1F001C0B0F000C0AFF003C0B6F066
:101EF00002C0B5F001C0B4F000C0B3F0BA6BB96B6A
:101F0000B86B920EB76FF7EC04F003C0A6F002C0F6
:101F1000A5F001C0A4F000C0A3F0A6C0B6F0A5C013
:101F2000B5F0A4C0B4F0A3C0B3F0BA6BB96BB86B92
:101F30008E0EB76FF7EC04F0D892B66BB56BB46B3E
:101F40007F0EB36F03C0BAF002C0B9F001C0B8F0A1
:101F500000C0B7F044DC03C0B2F002C0B1F001C071
:101F6000B0F000C0AFF020C0B4F01FC0B3F090D507
:101F7000B2C0BAF0B1C0B9F0B0C0B8F0AFC0B7F0FD
:101F800003C0BEF002C0BDF001C0BCF000C0BBF099
:101F900051EC07F003C0A6F002C0A5F001C0A4F008
:101FA00000C0A3F0A6C0B2F0A5C0B1F0A4C0B0F0CC
:101FB000A3C0AFF0B66BB56BB46BB36B85D500E166
:101FC00041C0B7F040C0B6F03FC0B5F03EC0B4F07D
:101FD000DDEC04F0D882B66BB56BB46B930EB36FC7
:101FE00003C0BAF002C0B9F001C0B8F000C0B7F049
:101FF000EFEC0BF003C0AEF002C0ADF001C0ACF0EE
:1020000000C0ABF0AAC0B6F0A9C0B5F0A8C0B4F04B
:10201000A7C0B3F0BA6BB96BB86B8B0EB76FF7ECA8
:1020200004F0D882AEC0B6F0ADC0B5F0ACC0B4F02C
:10203000ABC0B3F003C0BAF002C0B9F001C0B8F051
:1020400000C0B7F0EFEC0BF003C0B2F002C0B1F08B
:1020500001C0B0F000C0AFF003C0BAF002C0B9F0E8
:1020600001C0B8F000C0B7F0BE6B500EBD6F430E9C
:10207000BC6F8B0EBB6F51EC07F003C0B2F002C017
:10208000B1F001C0B0F000C0AFF003C0B6F002C0C4
:10209000B5F001C0B4F000C0B3F0A6C0BAF0A5C05E
:1020A000B9F0A4C0B8F0A3C0B7F0F7EC04F003C0D7
:1020B000AEF002C0ADF001C0ACF000C0ABF030C07B
:1020C000B4F02FC0B3F0C0DC03C0B2F002C0B1F076
:1020D00001C0B0F000C0AFF003C0BAF002C0B9F068
:1020E00001C0B8F000C0B7F0AEC0BEF0ADC0BDF0EA
:1020F000ACC0BCF0ABC0BBF051EC07F003C0B2F019
:1021000002C0B1F001C0B0F000C0AFF003C0BAF03F
:1021100002C0B9F001C0B8F000C0B7F0AEC0BEF068
:10212000ADC0BDF0ACC0BCF0ABC0BBF051EC07F033
:1021300003C0B2F002C0B1F001C0B0F000C0AFF017
:1021400003C0B6F002C0B5F001C0B4F000C0B3F0F7
:10215000BA6BB96BB86B9E0EB76FF7EC04F003C0A7
:10216000A6F002C0A5F001C0A4F000C0A3F02EC0EC
:10217000B4F02DC0B3F068DCAEC0BAF0ADC0B9F0B9
:10218000ACC0B8F0ABC0B7F003C0BEF002C0BDF049
:1021900001C0BCF000C0BBF051EC07F003C0B2F0CE
:1021A00002C0B1F001C0B0F000C0AFF003C0B6F0A3
:1021B00002C0B5F001C0B4F000C0B3F0BA6BB96BA7
:1021C000B86B8E0EB76FF7EC04F003C0AAF002C034
:1021D000A9F001C0A8F000C0A7F0D892A6C0B6F040
:1021E000A5C0B5F0A4C0B4F0A3C0B3F0AAC0BAF0C3
:1021F000A9C0B9F0A8C0B8F0A7C0B7F0EFEC0BF0D9
:1022000003C0B2F002C0B1F001C0B0F000C0AFF046
:102210002CC0B4F02BC0B3F017DCD892B2C0B6F02B
:10222000B1C0B5F0B0C0B4F0AFC0B3F003C0BAF005
:1022300002C0B9F001C0B8F000C0B7F0EFEC0BF08D
:1022400003C0B2F002C0B1F001C0B0F000C0AFF006
:1022500003C0B6F002C0B5F001C0B4F000C0B3F0E6
:10226000BA6BB96BB86B830EB76FF7EC04F0D8920A
:10227000AEC0B6F0ADC0B5F0ACC0B4F0ABC0B3F01A
:1022800003C0BAF002C0B9F001C0B8F000C0B7F0A6
:10229000EFEC0BF003C0AEF002C0ADF001C0ACF04B
:1022A00000C0ABF0AEC0B6F0ADC0B5F0ACC0B4F09D
:1022B000ABC0B3F0BA6BB96B480EB86F850EB76F91
:1022C000F7EC04F089EF14F0B56BB46BB36BB26B41
:1022D000B0C0B7F0AFC0B6F0B153D8B489D0B6C073
:1022E000E9FFB7C0EAFFB56BB46BB36BEFCFB2F0E9
:1022F000B651D8B4B707B607B6C0E9FFB7C0EAFF12
:10230000EF50BA6BB96BB86F006A0050B213B85196
:10231000B313B951B413BA51B513B651D8B4B70702
:10232000B607B6C0E9FFB7C0EAFFEF50BB6BBA6BA8
:10233000B96BB86F030EB817B96BBA6BBB6B006A99
:10234000016A0050B2130150B313B851B413B9511C
:10235000B513B6C0E9FFB7C0EAFFEF50BB6BBA6B6D
:10236000B96BB86FE00EB817B96BBA6BBB6B006A8C
:10237000B835016EB935026EBA35036E01360236D4
:10238000033601360236033601360236033601368D
:1023900002360336E00E01160050B2130150B3139B
:1023A0000250B4130350B513B651D8B4B707B607EB
:1023B000B6C0E9FFB7C0EAFFEF50B96BB86F006A6B
:1023C000016AB835026EB935036E0236033602363D
:1023D00003360236033602360336E00E021600508C
:1023E000B2130150B3130250B4130350B51353D0BA
:1023F000020EB65F000EB75BB6C0E9FFB7C0EAFFDA
:10240000EF50BB6BBA6BB96BB86FE00EB817B96B16
:10241000BA6BBB6BBB31B56FBA31B46FB931B36F47
:10242000B831B26FB533B433B333B233B533B43339
:10243000B333B233B533B433B333B233B533B43368
:10244000B333B233070EB517B651D8B4B707B607D2
:10245000B6C0E9FFB7C0EAFFEF50BB6BBA6BB96B10
:10246000B86FB835006EB935016EBA35026EBB353E
:10247000036E003601360236033600360136023668
:102480000336F80E00160050B2130150B313025079
:10249000B4130350B513B2C000F0B3C001F0B4C020
:1024A00002F0B5C003F01BEF15F0AA51016AA95D57
:1024B00003E2A9C000F00CD0006A080EAB6FA93788
:1024C0000036AA51005CD8B0006E0136AB2FF7D7AA
:1024D00012000150A7C0A9F0640EAA6FE6DF00C089
:1024E000A7F00150300E07E1A8A30DD0A8B70BD07C
:1024F000A8B9200E03D0A897A899A8810126015059
:102500009EA8FED7AD6EA7C0A9F00A0EAA6FCDDFB8
:1025100000C0A7F00150300E06E1A8B709D0A8A16D
:1025200007D0A8B9200E012601509EA8FED7AD6E97
:10253000300EA727A7519EA8FED7AD6E1200E95016
:10254000A96F3B0EB06F9A0EAF6FCA0EAE6FAD6B38
:102550000A0EAB6FD882EA6AA50EE96EA8C0B4F085
:10256000A7C0B3F0A6C0B2F0A5C0B1F0B0C0B8F03B
:10257000AFC0B7F0AEC0B6F0ADC0B5F0EAEC07F052
:10258000015000520FE1AB51010A0CE0A9510BE0E0
:102590000F0BAB5D01E00DE2A9BF0BD0A9BD03D0CD
:1025A000200E02D0A96B300E002600509EA8FED748
:1025B000AD6ED892B0C0B4F0AFC0B3F0AEC0B2F060
:1025C000ADC0B1F0B86BB76BB66B0A0EB56FEAEC85
:1025D00007F003C0B0F002C0AFF001C0AEF000C021
:1025E000ADF0AB2FB7D71200A5BF10D00F0E006E05
:1025F000A43900160A0E005C03E2300E002602D059
:10260000A551002600509EA8FED7AD6E0F0EA41750
:102610000A0EA45D02E2300E02D0A59FA551A427A8
:10262000A4519EA8FED7AD6E12000F0EB16F660EBC
:10263000B06F0F0140B708D0F10E6F1408096F6E2C
:102640000001B26B1BD00F0130B709D0F10E6F142F
:1026500006096F6E010E0001B26F10D00F0120B796
:1026600009D0F10E6F1404096F6E020E0001B26FF3
:1026700005D00F01000E016E3CD00001AC51030BE0
:10268000006EFC0E60140010606E0F0EB46F640ECE
:10269000B36FA8C0B8F0A7C0B7F0A6C0B6F0A5C089
:1026A000B5F0ADC0B9F048EC01F0ABC065FF659C7A
:1026B000AEB1658CAF6BAB51AF5D14E2A9C0E9FF61
:1026C000AAC0EAFFEFCFB5F0B1C0EAFFB0C0E9FFA2
:1026D000B5C0EFFFB02BD8B4B12BA92BD8B4AA2B1F
:1026E000AF2BE9D76086F10E6F146F6E010E016E8D
:1026F0000F0100011200F86AD09E078E200EAF6E07
:10270000A60EAC6E900EAB6EC180C182C184C19624
:1027100003D0394019000000000EF86E270EF76E46
:10272000120EF66E0900F550006E000A13E0090063
:10273000F550016EE8BE05D00F0BEA6E0900F5CF2B
:10274000E9FF01BC090001AC0900F5CFEEFF004E26
:10275000E9D7F9D7F86A796B786B776B170E766FD4
:102760007D6B7C6B7B6B190E7A6F7E917E83080E7E
:102770007F6F030E806F826B816B815107081BE3B3
:10278000036A8151660FE96E000E0320EA6E220E85
:10279000EF6E036A81515D0FE96E000E0320EA6E51
:1027A000EF6A036A81516E0FE96E000E0320EA6E34
:1027B000EF6A812BE2D783C066F084C067F085C0E2
:1027C00068F086C069F087C06AF088C06BF089C085
:1027D0006CF08AC06DF08BC06EF08CC06FF08DC055
:1027E00070F08EC071F0BA0EF66E000EF76E0EEC41
:1027F00001F0780E0509CA6E4F0ECB6EE0EF01F0C6
:102800004EEF02F02EEF04F0C80EA46FE5EC02F0DC
:102810009D82C00EF212DE0EF66E000EF76E0EEC0A
:1028200001F050EF04F0C80EA46FE5EC02F0A4EF45
:1028300005F003C092F002C091F001C090F000C01A
:102840008FF092C086F091C085F090C084F08FC068
:1028500083F083C066F084C067F085C068F086C0EE
:1028600069F00A0EA46FE5EC02F0EC0EF66E000EB5
:10287000F76E100EA76F41EC07F0890EE96E92C05B
:10288000A6F091C0A5F090C0A4F08FC0A3F0020EF6
:10289000A76F31EC08F0330E9EA8FED7AD6EF1EFB6
:1028A00008F003C09AF002C099F001C098F000C08F
:1028B00097F0140EA46FE5EC02F09AC08EF099C068
:1028C0008DF098C08CF097C08BF08BC06EF08CC0F0
:1028D0006FF08DC070F08EC071F0000EF66E010EBC
:1028E000F76E130EA76F41EC07F0890EE96E9AC0E0
:1028F000A6F099C0A5F098C0A4F097C0A3F0020E6E
:10290000A76F31EC08F0330E9EA8FED7AD6EA0EF96
:102910000DF003C096F002C095F001C094F000C025
:1029200093F096C08AF095C089F094C088F093C067
:1029300087F087C06AF088C06BF089C06CF08AC0ED
:102940006DF0140EA46FE5EC02F0180EF66E010E99
:10295000F76E110EA76F41EC07F0890EE96E96C075
:10296000A6F095C0A5F094C0A4F093C0A3F0020E09
:10297000A76F31EC08F0330E9EA8FED7AD6E0A0E9D
:10298000A46FE5EC02F0F40EA36F6E0EA46FC8EC1A
:1029900002F060BE04D00F0150AF41D10001A46B22
:1029A0005D0EA36F60AE17D0F10E6F146F6E589866
:1029B000A490589074BE5880749E60A40BD0000EF2
:1029C00060B0010E070B006ED8900036F10E58145F
:1029D0000010586E1CD00F0150AF15D0F10E6F14BF
:1029E0000A096F6E5888A492589074BC5880749CE1
:1029F0005051070B070B006ED8900036F10E58149B
:102A00000010586E03D0000E016E4AD000016550D0
:102A10000F0B656F589A65BC588A589C62B6588CE3
:102A2000000E58BC010EA86F0F0EB06F640EAF6F92
:102A3000A8C0B1F049D403C05CF002C05BF001C093
:102A40005AF000C059F00F0EA76F660EA66FA56B67
:102A50006551A55D14E2A6C0E9FFA7C0EAFFEFCF6C
:102A6000AAF0A4C0EAFFA3C0E9FFAAC0EFFFA32B0E
:102A7000D8B4A42BA62BD8B4A72BA52BE9D7F10E3D
:102A80006F146F6E589EA4BE588EA49E58A804D092
:102A90000F01509F03D00001609E0F01010E016ED7
:102AA0000152D8B4B4D0000E58B8010E0001A36F83
:102AB000000E58B0010EA46F2E0EF66E010EF76ECA
:102AC0000C0EA76F41EC07F0A3C0A7F01B0EA86F78
:102AD00000DD3C0EF66E010EF76E040EA76F41ECA2
:102AE00007F0410EE96E5CC0A8F05BC0A7F05AC0C9
:102AF000A6F059C0A5F023DD430EF66E010EF76E69
:102B0000050EA76F41EC07F065C0A7F01B0EA86F7C
:102B1000E0DC4A0EF66E010EF76E050EA76F41EC73
:102B200007F0A4C0A7F01B0EA86FD3DC200E9EA850
:102B3000FED7AD6E58C000F05830070BA36F000EE3
:102B400058BA010EA46F000E58BC010EA56F000EFE
:102B500058BE010EA66F540EF66E010EF76E050EEE
:102B6000A76F41EC07F0A3C0A7F01B0EA86FB1DC64
:102B70005B0EF66E010EF76E050EA76F41EC07F0C7
:102B8000A4C0A7F01B0EA86FA4DC620EF66E010EA7
:102B9000F76E050EA76F41EC07F0A5C0A7F01B0E5E
:102BA000A86F97DC690EF66E010EF76E050EA76F23
:102BB00041EC07F0A6C0A7F01B0EA86F8ADC720ECE
:102BC000F66E010EF76E0EEC01F0816B6551815DC2
:102BD00014E2036A81515D0FE96E000E0320EA6E74
:102BE000EFCFA3F0A3C0A4F0370EA56FFDDC200E3D
:102BF0009EA8FED7AD6E812BE9D70D0E9EA8FED7FD
:102C0000AD6E0A0E9EA8FED7AD6E08D00F01800EE5
:102C1000F66E010EF76E00010EEC01F00F0140A7F9
:102C200004D030A702D020B789D157500608D8B0B9
:102C300085D1FF0A04E15650D008D8B07FD1576A39
:102C4000566A000E00017EB3010EA36F000E7EB126
:102C5000010EA46F79C0A8F078C0A7F077C0A6F0E5
:102C600076C0A5F0AA6B660EA96F7FC0ABF080C0DE
:102C7000ACF0A3C0ADF0A4C0AEF0D7DC01C081F0D1
:102C8000813D01D095D0920EF66E010EF76E060EC4
:102C9000A76F41EC07F081C0A7F01B0EA86F19DCED
:102CA0009A0EF66E010EF76E050EA76F41EC07F057
:102CB000410EE96E79C0A8F078C0A7F077C0A6F001
:102CC00076C0A5F03CDCA20EF66E010EF76E050E86
:102CD000A76F41EC07F07FC0A7F01B0EA86F69EC4F
:102CE00012F0200E9EA8FED7AD6E000E7EB3010E30
:102CF000A36F000E7EB1010EA46FAC0EF66E010E36
:102D0000F76E040EA76F41EC07F080C0A7F01B0E12
:102D1000A86F69EC12F0B20EF66E010EF76E050E9A
:102D2000A76F41EC07F0A3C0A7F01B0EA86F69ECDA
:102D300012F0B90EF66E010EF76E050EA76F41EC9C
:102D400007F0A4C0A7F01B0EA86F69EC12F0C00E2C
:102D5000F66E010EF76E0C0EA76F41EC07F0816B5B
:102D60007F51815D1CE2036A8151660FE96E000E9E
:102D70000320EA6EEFCFA3F00D0E9EA8FED7AD6E36
:102D80000A0E9EA8FED7AD6EA3C0A4F0370EA56FA5
:102D90002BDC200E9EA8FED7AD6E812BE1D70D0E49
:102DA0009EA8FED7AD6E0A0E9EA8FED7AD6E06D0C9
:102DB000CE0EF66E010EF76E0EEC01F0000E7EB335
:102DC000010EA36F000E7EB1010EA46F7DC0A8F0AE
:102DD0007CC0A7F07BC0A6F07AC0A5F0AA6B6E0EEF
:102DE000A96F7FC0ABF080C0ACF0A3C0ADF0A4C0B1
:102DF000AEF01BDC01C082F0823D01D097D0E00E26
:102E0000F66E010EF76E060EA76F41EC07F081C05B
:102E1000A7F01B0EA86F69EC12F0E80EF66E010E1B
:102E2000F76E050EA76F41EC07F0410EE96E79C011
:102E3000A8F078C0A7F077C0A6F076C0A5F09FEC08
:102E400012F0F00EF66E010EF76E050EA76F41EC54
:102E500007F07FC0A7F01B0EA86F69EC12F0200EE0
:102E60009EA8FED7AD6E000E7EB3010EA36F000EBE
:102E70007EB1010EA46FFA0EF66E010EF76E040E0F
:102E8000A76F41EC07F080C0A7F01B0EA86F69EC9C
:102E900012F0000EF66E020EF76E050EA76F41ECF3
:102EA00007F0A3C0A7F01B0EA86F69EC12F0070E85
:102EB000F66E020EF76E050EA76F41EC07F0A4C088
:102EC000A7F01B0EA86F69EC12F00E0EF66E020E44
:102ED000F76E0C0EA76F41EC07F0826B7F51825D9D
:102EE0001DE2036A81516E0FE96E000E0320EA6E47
:102EF000EFCFA3F00D0E9EA8FED7AD6E0A0E9EA8D2
:102F0000FED7AD6EA3C0A4F0370EA56FF4EC12F09F
:102F1000200E9EA8FED7AD6E812BE0D70D0E9EA889
:102F2000FED7AD6E0A0E9EA8FED7AD6E020EA36F41
:102F3000FA0EA46FE5EC02F0A32FFAD7000171D4CA
:022F400003008C
:020000040030CA
:0E00000000220E0E000081000FC00FE00F4026
:00000001FF
;PIC18F248
;CRC=0C56  CREATED="15-Thg10-17 14:48"
